{
  "_format": "hh-sol-artifact-1",
  "contractName": "ERC20Token",
  "sourceName": "contracts/erc20.sol",
  "abi": [
    {
      "inputs": [],
      "stateMutability": "nonpayable",
      "type": "constructor"
    },
    {
      "anonymous": false,
      "inputs": [
        {
          "indexed": true,
          "internalType": "address",
          "name": "owner",
          "type": "address"
        },
        {
          "indexed": true,
          "internalType": "address",
          "name": "spender",
          "type": "address"
        },
        {
          "indexed": false,
          "internalType": "uint256",
          "name": "value",
          "type": "uint256"
        }
      ],
      "name": "Approval",
      "type": "event"
    },
    {
      "anonymous": false,
      "inputs": [
        {
          "indexed": true,
          "internalType": "address",
          "name": "from",
          "type": "address"
        },
        {
          "indexed": true,
          "internalType": "address",
          "name": "to",
          "type": "address"
        },
        {
          "indexed": false,
          "internalType": "uint256",
          "name": "value",
          "type": "uint256"
        }
      ],
      "name": "Transfer",
      "type": "event"
    },
    {
      "inputs": [
        {
          "internalType": "address",
          "name": "tokenOwner",
          "type": "address"
        },
        {
          "internalType": "address",
          "name": "spender",
          "type": "address"
        }
      ],
      "name": "allowance",
      "outputs": [
        {
          "internalType": "uint256",
          "name": "remaining",
          "type": "uint256"
        }
      ],
      "stateMutability": "view",
      "type": "function"
    },
    {
      "inputs": [
        {
          "internalType": "address",
          "name": "spender",
          "type": "address"
        },
        {
          "internalType": "uint256",
          "name": "tokens",
          "type": "uint256"
        }
      ],
      "name": "approve",
      "outputs": [
        {
          "internalType": "bool",
          "name": "success",
          "type": "bool"
        }
      ],
      "stateMutability": "nonpayable",
      "type": "function"
    },
    {
      "inputs": [
        {
          "internalType": "address",
          "name": "tokenOwner",
          "type": "address"
        }
      ],
      "name": "balanceOf",
      "outputs": [
        {
          "internalType": "uint256",
          "name": "balance",
          "type": "uint256"
        }
      ],
      "stateMutability": "view",
      "type": "function"
    },
    {
      "inputs": [],
      "name": "decimals",
      "outputs": [
        {
          "internalType": "uint8",
          "name": "",
          "type": "uint8"
        }
      ],
      "stateMutability": "view",
      "type": "function"
    },
    {
      "inputs": [
        {
          "internalType": "address",
          "name": "to",
          "type": "address"
        },
        {
          "internalType": "uint256",
          "name": "value",
          "type": "uint256"
        },
        {
          "components": [
            {
              "components": [
                {
                  "internalType": "uint256",
                  "name": "X",
                  "type": "uint256"
                },
                {
                  "internalType": "uint256",
                  "name": "Y",
                  "type": "uint256"
                }
              ],
              "internalType": "struct Pairing.G1Point",
              "name": "a",
              "type": "tuple"
            },
            {
              "components": [
                {
                  "internalType": "uint256[2]",
                  "name": "X",
                  "type": "uint256[2]"
                },
                {
                  "internalType": "uint256[2]",
                  "name": "Y",
                  "type": "uint256[2]"
                }
              ],
              "internalType": "struct Pairing.G2Point",
              "name": "b",
              "type": "tuple"
            },
            {
              "components": [
                {
                  "internalType": "uint256",
                  "name": "X",
                  "type": "uint256"
                },
                {
                  "internalType": "uint256",
                  "name": "Y",
                  "type": "uint256"
                }
              ],
              "internalType": "struct Pairing.G1Point",
              "name": "c",
              "type": "tuple"
            }
          ],
          "internalType": "struct Verifier.Proof",
          "name": "proof",
          "type": "tuple"
        },
        {
          "internalType": "uint256[65]",
          "name": "input",
          "type": "uint256[65]"
        },
        {
          "internalType": "uint256[2]",
          "name": "proof_commitment",
          "type": "uint256[2]"
        }
      ],
      "name": "mintWithProof",
      "outputs": [],
      "stateMutability": "nonpayable",
      "type": "function"
    },
    {
      "inputs": [],
      "name": "name",
      "outputs": [
        {
          "internalType": "string",
          "name": "",
          "type": "string"
        }
      ],
      "stateMutability": "view",
      "type": "function"
    },
    {
      "inputs": [],
      "name": "symbol",
      "outputs": [
        {
          "internalType": "string",
          "name": "",
          "type": "string"
        }
      ],
      "stateMutability": "view",
      "type": "function"
    },
    {
      "inputs": [],
      "name": "totalSupply",
      "outputs": [
        {
          "internalType": "uint256",
          "name": "",
          "type": "uint256"
        }
      ],
      "stateMutability": "view",
      "type": "function"
    },
    {
      "inputs": [
        {
          "internalType": "address",
          "name": "to",
          "type": "address"
        },
        {
          "internalType": "uint256",
          "name": "tokens",
          "type": "uint256"
        }
      ],
      "name": "transfer",
      "outputs": [
        {
          "internalType": "bool",
          "name": "success",
          "type": "bool"
        }
      ],
      "stateMutability": "nonpayable",
      "type": "function"
    },
    {
      "inputs": [
        {
          "internalType": "address",
          "name": "from",
          "type": "address"
        },
        {
          "internalType": "address",
          "name": "to",
          "type": "address"
        },
        {
          "internalType": "uint256",
          "name": "tokens",
          "type": "uint256"
        }
      ],
      "name": "transferFrom",
      "outputs": [
        {
          "internalType": "bool",
          "name": "success",
          "type": "bool"
        }
      ],
      "stateMutability": "nonpayable",
      "type": "function"
    }
  ],
  "bytecode": "0x60806040523480156200001157600080fd5b506040518060400160405280600b81526020017f455243323020546f6b656e000000000000000000000000000000000000000000815250600090805190602001906200005f92919062000144565b506040518060400160405280600281526020017f455400000000000000000000000000000000000000000000000000000000000081525060019080519060200190620000ad92919062000144565b506012600260006101000a81548160ff021916908360ff1602179055506000600381905550604051620000e090620001d5565b604051809103906000f080158015620000fd573d6000803e3d6000fd5b50600460006101000a81548173ffffffffffffffffffffffffffffffffffffffff021916908373ffffffffffffffffffffffffffffffffffffffff16021790555062000267565b828054620001529062000202565b90600052602060002090601f016020900481019282620001765760008555620001c2565b82601f106200019157805160ff1916838001178555620001c2565b82800160010185558215620001c2579182015b82811115620001c1578251825591602001919060010190620001a4565b5b509050620001d19190620001e3565b5090565b6134b780620016c583390190565b5b80821115620001fe576000816000905550600101620001e4565b5090565b600060028204905060018216806200021b57607f821691505b6020821081141562000232576200023162000238565b5b50919050565b7f4e487b7100000000000000000000000000000000000000000000000000000000600052602260045260246000fd5b61144e80620002776000396000f3fe608060405234801561001057600080fd5b506004361061009e5760003560e01c8063313ce56711610066578063313ce5671461015b57806370a082311461017957806395d89b41146101a9578063a9059cbb146101c7578063dd62ed3e146101f75761009e565b806306fdde03146100a3578063095ea7b3146100c15780630acf8131146100f157806318160ddd1461010d57806323b872dd1461012b575b600080fd5b6100ab610227565b6040516100b89190611041565b60405180910390f35b6100db60048036038101906100d69190610cd4565b6102b9565b6040516100e89190611026565b60405180910390f35b61010b60048036038101906101069190610d10565b6103e4565b005b61011561054a565b60405161012291906110bd565b60405180910390f35b61014560048036038101906101409190610c85565b610554565b6040516101529190611026565b60405180910390f35b610163610705565b60405161017091906110d8565b60405180910390f35b610193600480360381019061018e9190610c20565b61071c565b6040516101a091906110bd565b60405180910390f35b6101b1610765565b6040516101be9190611041565b60405180910390f35b6101e160048036038101906101dc9190610cd4565b6107f7565b6040516101ee9190611026565b60405180910390f35b610211600480360381019061020c9190610c49565b61094d565b60405161021e91906110bd565b60405180910390f35b60606000805461023690611303565b80601f016020809104026020016040519081016040528092919081815260200182805461026290611303565b80156102af5780601f10610284576101008083540402835291602001916102af565b820191906000526020600020905b81548152906001019060200180831161029257829003601f168201915b5050505050905090565b60008073ffffffffffffffffffffffffffffffffffffffff168373ffffffffffffffffffffffffffffffffffffffff1614156102f457600080fd5b81600660003373ffffffffffffffffffffffffffffffffffffffff1673ffffffffffffffffffffffffffffffffffffffff16815260200190815260200160002060008573ffffffffffffffffffffffffffffffffffffffff1673ffffffffffffffffffffffffffffffffffffffff168152602001908152602001600020819055508273ffffffffffffffffffffffffffffffffffffffff163373ffffffffffffffffffffffffffffffffffffffff167f8c5be1e5ebec7d5bd14f71427d1e84f3dd0314c0f7b2291e5b200ac8c7c3b925846040516103d291906110bd565b60405180910390a36001905092915050565b600460009054906101000a900473ffffffffffffffffffffffffffffffffffffffff1673ffffffffffffffffffffffffffffffffffffffff1663bc232a008484846040518463ffffffff1660e01b815260040161044393929190611083565b602060405180830381600087803b15801561045d57600080fd5b505af1158015610471573d6000803e3d6000fd5b505050506040513d601f19601f820116820180604052508101906104959190610d8a565b6104d4576040517f08c379a00000000000000000000000000000000000000000000000000000000081526004016104cb90611063565b60405180910390fd5b83600360008282546104e691906111f1565b9250508190555083600560008773ffffffffffffffffffffffffffffffffffffffff1673ffffffffffffffffffffffffffffffffffffffff168152602001908152602001600020600082825461053c91906111f1565b925050819055505050505050565b6000600354905090565b600081600560008673ffffffffffffffffffffffffffffffffffffffff1673ffffffffffffffffffffffffffffffffffffffff16815260200190815260200160002060008282546105a59190611247565b9250508190555081600660008673ffffffffffffffffffffffffffffffffffffffff1673ffffffffffffffffffffffffffffffffffffffff16815260200190815260200160002060003373ffffffffffffffffffffffffffffffffffffffff1673ffffffffffffffffffffffffffffffffffffffff16815260200190815260200160002060008282546106389190611247565b9250508190555081600560008573ffffffffffffffffffffffffffffffffffffffff1673ffffffffffffffffffffffffffffffffffffffff168152602001908152602001600020600082825461068e91906111f1565b925050819055508273ffffffffffffffffffffffffffffffffffffffff168473ffffffffffffffffffffffffffffffffffffffff167fddf252ad1be2c89b69c2b068fc378daa952ba7f163c4a11628f55a4df523b3ef846040516106f291906110bd565b60405180910390a3600190509392505050565b6000600260009054906101000a900460ff16905090565b6000600560008373ffffffffffffffffffffffffffffffffffffffff1673ffffffffffffffffffffffffffffffffffffffff168152602001908152602001600020549050919050565b60606001805461077490611303565b80601f01602080910402602001604051908101604052809291908181526020018280546107a090611303565b80156107ed5780601f106107c2576101008083540402835291602001916107ed565b820191906000526020600020905b8154815290600101906020018083116107d057829003601f168201915b5050505050905090565b60008073ffffffffffffffffffffffffffffffffffffffff168373ffffffffffffffffffffffffffffffffffffffff16141561083257600080fd5b81600560003373ffffffffffffffffffffffffffffffffffffffff1673ffffffffffffffffffffffffffffffffffffffff16815260200190815260200160002060008282546108819190611247565b9250508190555081600560008573ffffffffffffffffffffffffffffffffffffffff1673ffffffffffffffffffffffffffffffffffffffff16815260200190815260200160002060008282546108d791906111f1565b925050819055508273ffffffffffffffffffffffffffffffffffffffff163373ffffffffffffffffffffffffffffffffffffffff167fddf252ad1be2c89b69c2b068fc378daa952ba7f163c4a11628f55a4df523b3ef8460405161093b91906110bd565b60405180910390a36001905092915050565b6000600660008473ffffffffffffffffffffffffffffffffffffffff1673ffffffffffffffffffffffffffffffffffffffff16815260200190815260200160002060008373ffffffffffffffffffffffffffffffffffffffff1673ffffffffffffffffffffffffffffffffffffffff16815260200190815260200160002054905092915050565b60006109e76109e284611124565b6110f3565b905080828560208602820111156109fd57600080fd5b60005b85811015610a2d5781610a138882610c0b565b845260208401935060208301925050600181019050610a00565b5050509392505050565b6000610a4a610a458461114a565b6110f3565b90508082856020860282011115610a6057600080fd5b60005b85811015610a905781610a768882610c0b565b845260208401935060208301925050600181019050610a63565b5050509392505050565b600081359050610aa9816113d3565b92915050565b600082601f830112610ac057600080fd5b6002610acd8482856109d4565b91505092915050565b600082601f830112610ae757600080fd5b6041610af4848285610a37565b91505092915050565b600081519050610b0c816113ea565b92915050565b600060408284031215610b2457600080fd5b610b2e60406110f3565b90506000610b3e84828501610c0b565b6000830152506020610b5284828501610c0b565b60208301525092915050565b600060808284031215610b7057600080fd5b610b7a60406110f3565b90506000610b8a84828501610aaf565b6000830152506040610b9e84828501610aaf565b60208301525092915050565b60006101008284031215610bbd57600080fd5b610bc760606110f3565b90506000610bd784828501610b12565b6000830152506040610beb84828501610b5e565b60208301525060c0610bff84828501610b12565b60408301525092915050565b600081359050610c1a81611401565b92915050565b600060208284031215610c3257600080fd5b6000610c4084828501610a9a565b91505092915050565b60008060408385031215610c5c57600080fd5b6000610c6a85828601610a9a565b9250506020610c7b85828601610a9a565b9150509250929050565b600080600060608486031215610c9a57600080fd5b6000610ca886828701610a9a565b9350506020610cb986828701610a9a565b9250506040610cca86828701610c0b565b9150509250925092565b60008060408385031215610ce757600080fd5b6000610cf585828601610a9a565b9250506020610d0685828601610c0b565b9150509250929050565b60008060008060006109a08688031215610d2957600080fd5b6000610d3788828901610a9a565b9550506020610d4888828901610c0b565b9450506040610d5988828901610baa565b935050610140610d6b88828901610ad6565b925050610960610d7d88828901610aaf565b9150509295509295909350565b600060208284031215610d9c57600080fd5b6000610daa84828501610afd565b91505092915050565b6000610dbf8383610ff9565b60208301905092915050565b610dd481611184565b610dde81846111bf565b9250610de982611170565b8060005b83811015610e1a578151610e018782610db3565b9650610e0c836111a5565b925050600181019050610ded565b505050505050565b610e2b81611184565b610e3581846111ca565b9250610e4082611170565b8060005b83811015610e71578151610e588782610db3565b9650610e63836111a5565b925050600181019050610e44565b505050505050565b610e828161118f565b610e8c81846111d5565b9250610e978261117a565b8060005b83811015610ec8578151610eaf8782610db3565b9650610eba836111b2565b925050600181019050610e9b565b505050505050565b610ed98161128d565b82525050565b6000610eea8261119a565b610ef481856111e0565b9350610f048185602086016112d0565b610f0d816113c2565b840191505092915050565b6000610f256010836111e0565b91507f50726f6f6620697320696e76616c6964000000000000000000000000000000006000830152602082019050919050565b604082016000820151610f6e6000850182610ff9565b506020820151610f816020850182610ff9565b50505050565b608082016000820151610f9d6000850182610dcb565b506020820151610fb06040850182610dcb565b50505050565b61010082016000820151610fcd6000850182610f58565b506020820151610fe06040850182610f87565b506040820151610ff360c0850182610f58565b50505050565b611002816112b9565b82525050565b611011816112b9565b82525050565b611020816112c3565b82525050565b600060208201905061103b6000830184610ed0565b92915050565b6000602082019050818103600083015261105b8184610edf565b905092915050565b6000602082019050818103600083015261107c81610f18565b9050919050565b6000610960820190506110996000830186610fb6565b6110a7610100830185610e79565b6110b5610920830184610e22565b949350505050565b60006020820190506110d26000830184611008565b92915050565b60006020820190506110ed6000830184611017565b92915050565b6000604051905081810181811067ffffffffffffffff8211171561111a57611119611393565b5b8060405250919050565b600067ffffffffffffffff82111561113f5761113e611393565b5b602082029050919050565b600067ffffffffffffffff82111561116557611164611393565b5b602082029050919050565b6000819050919050565b6000819050919050565b600060029050919050565b600060419050919050565b600081519050919050565b6000602082019050919050565b6000602082019050919050565b600081905092915050565b600081905092915050565b600081905092915050565b600082825260208201905092915050565b60006111fc826112b9565b9150611207836112b9565b9250827fffffffffffffffffffffffffffffffffffffffffffffffffffffffffffffffff0382111561123c5761123b611335565b5b828201905092915050565b6000611252826112b9565b915061125d836112b9565b9250828210156112705761126f611335565b5b828203905092915050565b600061128682611299565b9050919050565b60008115159050919050565b600073ffffffffffffffffffffffffffffffffffffffff82169050919050565b6000819050919050565b600060ff82169050919050565b60005b838110156112ee5780820151818401526020810190506112d3565b838111156112fd576000848401525b50505050565b6000600282049050600182168061131b57607f821691505b6020821081141561132f5761132e611364565b5b50919050565b7f4e487b7100000000000000000000000000000000000000000000000000000000600052601160045260246000fd5b7f4e487b7100000000000000000000000000000000000000000000000000000000600052602260045260246000fd5b7f4e487b7100000000000000000000000000000000000000000000000000000000600052604160045260246000fd5b6000601f19601f8301169050919050565b6113dc8161127b565b81146113e757600080fd5b50565b6113f38161128d565b81146113fe57600080fd5b50565b61140a816112b9565b811461141557600080fd5b5056fea2646970667358221220df32b5e964b1feb02003971f6d9a765643dcf0b991954550fa6adf29663e72f864736f6c63430008000033608060405234801561001057600080fd5b50613497806100206000396000f3fe608060405234801561001057600080fd5b50600436106100365760003560e01c8063bc232a001461003b578063e080e16e1461006b575b600080fd5b61005560048036038101906100509190613059565b61009b565b6040516100629190613133565b60405180910390f35b61008560048036038101906100809190613007565b6100fb565b604051610092919061316e565b60405180910390f35b6000806100a98486856100fb565b14156100ef577fe78b29f09ce8ea10f38c2cd1016403d7a96bc8a14f6c1daa0da40c836bd2067e336040516100de9190613118565b60405180910390a1600190506100f4565b600090505b9392505050565b6000807f30644e72e131a029b85045b68181585d2833e84879b9709143e1f593f00000019050600061012b6103c8565b9050806080015151600160416101419190613217565b1461014b57600080fd5b60006040518060400160405280600081526020016000815250905060005b604181101561027057838882604181106101ac577f4e487b7100000000000000000000000000000000000000000000000000000000600052603260045260246000fd5b6020020151106101bb57600080fd5b61025b8261025685608001516001856101d49190613217565b8151811061020b577f4e487b7100000000000000000000000000000000000000000000000000000000600052603260045260246000fd5b60200260200101518b856041811061024c577f4e487b7100000000000000000000000000000000000000000000000000000000600052603260045260246000fd5b602002015161203e565b612157565b9150808061026890613343565b915050610169565b5060006040518060400160405280876000600281106102b8577f4e487b7100000000000000000000000000000000000000000000000000000000600052603260045260246000fd5b60200201518152602001876001600281106102fc577f4e487b7100000000000000000000000000000000000000000000000000000000600052603260045260246000fd5b60200201518152509050610355828460800151600081518110610348577f4e487b7100000000000000000000000000000000000000000000000000000000600052603260045260246000fd5b6020026020010151612157565b91506103618282612157565b91506103a787600001518860200151610379856122bc565b866040015161038b8c604001516122bc565b886060015161039d8a600001516122bc565b8a60200151612361565b6103b85760019450505050506103c1565b60009450505050505b9392505050565b6103d0612cd6565b60405180604001604052807f02e0f8f4fa57676b9a92014754a5bb68266d1221adfb5e1c956730a7953b303981526020017f088ca8ebf54b23d758bb9513109cc039b4c6f06c3c676c084d6f9810763d3c128152508160000181905250604051806040016040528060405180604001604052807f20b96865f38851e16dd551feef1ace2e5e3818d3630f1c68b7a50ccc7230813681526020017f13a5f9cd7b82c2555f3016b034d1859db8ae11950a3d66fd52048e7827c4a6b0815250815260200160405180604001604052807f05176c726279dd1e1361a1374cc833463796e781e7e8bf728a10d9df1a5eb57281526020017f2028d99fc194452c11ead614190adfdf9edb24b1a02e49864dce081b898a78138152508152508160200181905250604051806040016040528060405180604001604052807f2edae492fd58534da678bb562198741f1b3b8ae1b280879e549ded6220fe513981526020017f07d56fdcf53281c03c3599c1dfe4e0b95be6100d4c32c0e56f57a78746aad5aa815250815260200160405180604001604052807f2af1d6ecb6630b0bb844479df962fe36cc3fe962169654cb2e9c00af4a14d0a581526020017f0e1100f69013ed69824f2a37766f91c094c196848c2b19f3c0872997436051c18152508152508160400181905250604051806040016040528060405180604001604052807f1053ccfd4f92f610a0c2e4a7455d500971393431c259445d7fb65f57e191649c81526020017f2a6ec642b4a135465cd2744f69c7a5aa906d906d92e386d2092adc8c8d575854815250815260200160405180604001604052807f24c42077d4fee35b3bf39d9f2f3edd272055bb898e7725e7d8e72a0302285c7181526020017f1be743ebfa70bc7a9a8fa761fa14346da8e3c13a053b9fc2b1a5ebabc17e83158152508152508160600181905250604267ffffffffffffffff8111156106bd577f4e487b7100000000000000000000000000000000000000000000000000000000600052604160045260246000fd5b6040519080825280602002602001820160405280156106f657816020015b6106e3612d1d565b8152602001906001900390816106db5790505b50816080018190525060405180604001604052807f12305cc7fce610e0f6f2704948166c0fed09e2396e92dfaffcefe7dfa5cec0c781526020017f183dafc888151bbcc2e8621c3d3cbf678c424f09b4174b165dc825838f4c93298152508160800151600081518110610792577f4e487b7100000000000000000000000000000000000000000000000000000000600052603260045260246000fd5b6020026020010181905250604051806040016040528060008152602001600081525081608001516001815181106107f2577f4e487b7100000000000000000000000000000000000000000000000000000000600052603260045260246000fd5b602002602001018190525060405180604001604052806000815260200160008152508160800151600281518110610852577f4e487b7100000000000000000000000000000000000000000000000000000000600052603260045260246000fd5b6020026020010181905250604051806040016040528060008152602001600081525081608001516003815181106108b2577f4e487b7100000000000000000000000000000000000000000000000000000000600052603260045260246000fd5b602002602001018190525060405180604001604052806000815260200160008152508160800151600481518110610912577f4e487b7100000000000000000000000000000000000000000000000000000000600052603260045260246000fd5b602002602001018190525060405180604001604052806000815260200160008152508160800151600581518110610972577f4e487b7100000000000000000000000000000000000000000000000000000000600052603260045260246000fd5b6020026020010181905250604051806040016040528060008152602001600081525081608001516006815181106109d2577f4e487b7100000000000000000000000000000000000000000000000000000000600052603260045260246000fd5b602002602001018190525060405180604001604052806000815260200160008152508160800151600781518110610a32577f4e487b7100000000000000000000000000000000000000000000000000000000600052603260045260246000fd5b602002602001018190525060405180604001604052806000815260200160008152508160800151600881518110610a92577f4e487b7100000000000000000000000000000000000000000000000000000000600052603260045260246000fd5b602002602001018190525060405180604001604052806000815260200160008152508160800151600981518110610af2577f4e487b7100000000000000000000000000000000000000000000000000000000600052603260045260246000fd5b602002602001018190525060405180604001604052806000815260200160008152508160800151600a81518110610b52577f4e487b7100000000000000000000000000000000000000000000000000000000600052603260045260246000fd5b602002602001018190525060405180604001604052806000815260200160008152508160800151600b81518110610bb2577f4e487b7100000000000000000000000000000000000000000000000000000000600052603260045260246000fd5b602002602001018190525060405180604001604052806000815260200160008152508160800151600c81518110610c12577f4e487b7100000000000000000000000000000000000000000000000000000000600052603260045260246000fd5b602002602001018190525060405180604001604052806000815260200160008152508160800151600d81518110610c72577f4e487b7100000000000000000000000000000000000000000000000000000000600052603260045260246000fd5b602002602001018190525060405180604001604052806000815260200160008152508160800151600e81518110610cd2577f4e487b7100000000000000000000000000000000000000000000000000000000600052603260045260246000fd5b602002602001018190525060405180604001604052806000815260200160008152508160800151600f81518110610d32577f4e487b7100000000000000000000000000000000000000000000000000000000600052603260045260246000fd5b602002602001018190525060405180604001604052806000815260200160008152508160800151601081518110610d92577f4e487b7100000000000000000000000000000000000000000000000000000000600052603260045260246000fd5b602002602001018190525060405180604001604052806000815260200160008152508160800151601181518110610df2577f4e487b7100000000000000000000000000000000000000000000000000000000600052603260045260246000fd5b602002602001018190525060405180604001604052806000815260200160008152508160800151601281518110610e52577f4e487b7100000000000000000000000000000000000000000000000000000000600052603260045260246000fd5b602002602001018190525060405180604001604052806000815260200160008152508160800151601381518110610eb2577f4e487b7100000000000000000000000000000000000000000000000000000000600052603260045260246000fd5b602002602001018190525060405180604001604052806000815260200160008152508160800151601481518110610f12577f4e487b7100000000000000000000000000000000000000000000000000000000600052603260045260246000fd5b602002602001018190525060405180604001604052806000815260200160008152508160800151601581518110610f72577f4e487b7100000000000000000000000000000000000000000000000000000000600052603260045260246000fd5b602002602001018190525060405180604001604052806000815260200160008152508160800151601681518110610fd2577f4e487b7100000000000000000000000000000000000000000000000000000000600052603260045260246000fd5b602002602001018190525060405180604001604052806000815260200160008152508160800151601781518110611032577f4e487b7100000000000000000000000000000000000000000000000000000000600052603260045260246000fd5b602002602001018190525060405180604001604052806000815260200160008152508160800151601881518110611092577f4e487b7100000000000000000000000000000000000000000000000000000000600052603260045260246000fd5b6020026020010181905250604051806040016040528060008152602001600081525081608001516019815181106110f2577f4e487b7100000000000000000000000000000000000000000000000000000000600052603260045260246000fd5b602002602001018190525060405180604001604052806000815260200160008152508160800151601a81518110611152577f4e487b7100000000000000000000000000000000000000000000000000000000600052603260045260246000fd5b602002602001018190525060405180604001604052806000815260200160008152508160800151601b815181106111b2577f4e487b7100000000000000000000000000000000000000000000000000000000600052603260045260246000fd5b602002602001018190525060405180604001604052806000815260200160008152508160800151601c81518110611212577f4e487b7100000000000000000000000000000000000000000000000000000000600052603260045260246000fd5b602002602001018190525060405180604001604052806000815260200160008152508160800151601d81518110611272577f4e487b7100000000000000000000000000000000000000000000000000000000600052603260045260246000fd5b602002602001018190525060405180604001604052806000815260200160008152508160800151601e815181106112d2577f4e487b7100000000000000000000000000000000000000000000000000000000600052603260045260246000fd5b602002602001018190525060405180604001604052806000815260200160008152508160800151601f81518110611332577f4e487b7100000000000000000000000000000000000000000000000000000000600052603260045260246000fd5b602002602001018190525060405180604001604052806000815260200160008152508160800151602081518110611392577f4e487b7100000000000000000000000000000000000000000000000000000000600052603260045260246000fd5b6020026020010181905250604051806040016040528060008152602001600081525081608001516021815181106113f2577f4e487b7100000000000000000000000000000000000000000000000000000000600052603260045260246000fd5b602002602001018190525060405180604001604052806000815260200160008152508160800151602281518110611452577f4e487b7100000000000000000000000000000000000000000000000000000000600052603260045260246000fd5b6020026020010181905250604051806040016040528060008152602001600081525081608001516023815181106114b2577f4e487b7100000000000000000000000000000000000000000000000000000000600052603260045260246000fd5b602002602001018190525060405180604001604052806000815260200160008152508160800151602481518110611512577f4e487b7100000000000000000000000000000000000000000000000000000000600052603260045260246000fd5b602002602001018190525060405180604001604052806000815260200160008152508160800151602581518110611572577f4e487b7100000000000000000000000000000000000000000000000000000000600052603260045260246000fd5b6020026020010181905250604051806040016040528060008152602001600081525081608001516026815181106115d2577f4e487b7100000000000000000000000000000000000000000000000000000000600052603260045260246000fd5b602002602001018190525060405180604001604052806000815260200160008152508160800151602781518110611632577f4e487b7100000000000000000000000000000000000000000000000000000000600052603260045260246000fd5b602002602001018190525060405180604001604052806000815260200160008152508160800151602881518110611692577f4e487b7100000000000000000000000000000000000000000000000000000000600052603260045260246000fd5b6020026020010181905250604051806040016040528060008152602001600081525081608001516029815181106116f2577f4e487b7100000000000000000000000000000000000000000000000000000000600052603260045260246000fd5b602002602001018190525060405180604001604052806000815260200160008152508160800151602a81518110611752577f4e487b7100000000000000000000000000000000000000000000000000000000600052603260045260246000fd5b602002602001018190525060405180604001604052806000815260200160008152508160800151602b815181106117b2577f4e487b7100000000000000000000000000000000000000000000000000000000600052603260045260246000fd5b602002602001018190525060405180604001604052806000815260200160008152508160800151602c81518110611812577f4e487b7100000000000000000000000000000000000000000000000000000000600052603260045260246000fd5b602002602001018190525060405180604001604052806000815260200160008152508160800151602d81518110611872577f4e487b7100000000000000000000000000000000000000000000000000000000600052603260045260246000fd5b602002602001018190525060405180604001604052806000815260200160008152508160800151602e815181106118d2577f4e487b7100000000000000000000000000000000000000000000000000000000600052603260045260246000fd5b602002602001018190525060405180604001604052806000815260200160008152508160800151602f81518110611932577f4e487b7100000000000000000000000000000000000000000000000000000000600052603260045260246000fd5b602002602001018190525060405180604001604052806000815260200160008152508160800151603081518110611992577f4e487b7100000000000000000000000000000000000000000000000000000000600052603260045260246000fd5b6020026020010181905250604051806040016040528060008152602001600081525081608001516031815181106119f2577f4e487b7100000000000000000000000000000000000000000000000000000000600052603260045260246000fd5b602002602001018190525060405180604001604052806000815260200160008152508160800151603281518110611a52577f4e487b7100000000000000000000000000000000000000000000000000000000600052603260045260246000fd5b602002602001018190525060405180604001604052806000815260200160008152508160800151603381518110611ab2577f4e487b7100000000000000000000000000000000000000000000000000000000600052603260045260246000fd5b602002602001018190525060405180604001604052806000815260200160008152508160800151603481518110611b12577f4e487b7100000000000000000000000000000000000000000000000000000000600052603260045260246000fd5b602002602001018190525060405180604001604052806000815260200160008152508160800151603581518110611b72577f4e487b7100000000000000000000000000000000000000000000000000000000600052603260045260246000fd5b602002602001018190525060405180604001604052806000815260200160008152508160800151603681518110611bd2577f4e487b7100000000000000000000000000000000000000000000000000000000600052603260045260246000fd5b602002602001018190525060405180604001604052806000815260200160008152508160800151603781518110611c32577f4e487b7100000000000000000000000000000000000000000000000000000000600052603260045260246000fd5b602002602001018190525060405180604001604052806000815260200160008152508160800151603881518110611c92577f4e487b7100000000000000000000000000000000000000000000000000000000600052603260045260246000fd5b602002602001018190525060405180604001604052806000815260200160008152508160800151603981518110611cf2577f4e487b7100000000000000000000000000000000000000000000000000000000600052603260045260246000fd5b602002602001018190525060405180604001604052806000815260200160008152508160800151603a81518110611d52577f4e487b7100000000000000000000000000000000000000000000000000000000600052603260045260246000fd5b602002602001018190525060405180604001604052806000815260200160008152508160800151603b81518110611db2577f4e487b7100000000000000000000000000000000000000000000000000000000600052603260045260246000fd5b602002602001018190525060405180604001604052806000815260200160008152508160800151603c81518110611e12577f4e487b7100000000000000000000000000000000000000000000000000000000600052603260045260246000fd5b602002602001018190525060405180604001604052806000815260200160008152508160800151603d81518110611e72577f4e487b7100000000000000000000000000000000000000000000000000000000600052603260045260246000fd5b602002602001018190525060405180604001604052806000815260200160008152508160800151603e81518110611ed2577f4e487b7100000000000000000000000000000000000000000000000000000000600052603260045260246000fd5b602002602001018190525060405180604001604052806000815260200160008152508160800151603f81518110611f32577f4e487b7100000000000000000000000000000000000000000000000000000000600052603260045260246000fd5b602002602001018190525060405180604001604052806000815260200160008152508160800151604081518110611f92577f4e487b7100000000000000000000000000000000000000000000000000000000600052603260045260246000fd5b602002602001018190525060405180604001604052807f0aa3469f2c318334aae183792e5b95639393af4a13dc1245f34862b0d3892ebf81526020017f0bb0f0f6dec3ae71ac8867faa79082ca882512aa8ad73e89a50f7d986ed48b8f8152508160800151604181518110612030577f4e487b7100000000000000000000000000000000000000000000000000000000600052603260045260246000fd5b602002602001018190525090565b612046612d1d565b61204e612d37565b83600001518160006003811061208d577f4e487b7100000000000000000000000000000000000000000000000000000000600052603260045260246000fd5b6020020181815250508360200151816001600381106120d5577f4e487b7100000000000000000000000000000000000000000000000000000000600052603260045260246000fd5b6020020181815250508281600260038110612119577f4e487b7100000000000000000000000000000000000000000000000000000000600052603260045260246000fd5b602002018181525050600060608360808460076107d05a03fa9050806000811461214257612144565bfe5b508061214f57600080fd5b505092915050565b61215f612d1d565b612167612d59565b8360000151816000600481106121a6577f4e487b7100000000000000000000000000000000000000000000000000000000600052603260045260246000fd5b6020020181815250508360200151816001600481106121ee577f4e487b7100000000000000000000000000000000000000000000000000000000600052603260045260246000fd5b602002018181525050826000015181600260048110612236577f4e487b7100000000000000000000000000000000000000000000000000000000600052603260045260246000fd5b60200201818152505082602001518160036004811061227e577f4e487b7100000000000000000000000000000000000000000000000000000000600052603260045260246000fd5b602002018181525050600060608360c08460066107d05a03fa905080600081146122a7576122a9565bfe5b50806122b457600080fd5b505092915050565b6122c4612d1d565b60007f30644e72e131a029b85045b68181585d97816a916871ca8d3c208c16d87cfd47905060008360000151148015612301575060008360200151145b1561232557604051806040016040528060008152602001600081525091505061235c565b60405180604001604052808460000151815260200182856020015161234a919061338c565b8361235591906132c7565b8152509150505b919050565b600080600467ffffffffffffffff8111156123a5577f4e487b7100000000000000000000000000000000000000000000000000000000600052604160045260246000fd5b6040519080825280602002602001820160405280156123de57816020015b6123cb612d1d565b8152602001906001900390816123c35790505b5090506000600467ffffffffffffffff811115612424577f4e487b7100000000000000000000000000000000000000000000000000000000600052604160045260246000fd5b60405190808252806020026020018201604052801561245d57816020015b61244a612d7b565b8152602001906001900390816124425790505b5090508a8260008151811061249b577f4e487b7100000000000000000000000000000000000000000000000000000000600052603260045260246000fd5b602002602001018190525088826001815181106124e1577f4e487b7100000000000000000000000000000000000000000000000000000000600052603260045260246000fd5b60200260200101819052508682600281518110612527577f4e487b7100000000000000000000000000000000000000000000000000000000600052603260045260246000fd5b6020026020010181905250848260038151811061256d577f4e487b7100000000000000000000000000000000000000000000000000000000600052603260045260246000fd5b602002602001018190525089816000815181106125b3577f4e487b7100000000000000000000000000000000000000000000000000000000600052603260045260246000fd5b602002602001018190525087816001815181106125f9577f4e487b7100000000000000000000000000000000000000000000000000000000600052603260045260246000fd5b6020026020010181905250858160028151811061263f577f4e487b7100000000000000000000000000000000000000000000000000000000600052603260045260246000fd5b60200260200101819052508381600381518110612685577f4e487b7100000000000000000000000000000000000000000000000000000000600052603260045260246000fd5b602002602001018190525061269a82826126aa565b9250505098975050505050505050565b600081518351146126ba57600080fd5b60008351905060006006826126cf919061326d565b905060008167ffffffffffffffff811115612713577f4e487b7100000000000000000000000000000000000000000000000000000000600052604160045260246000fd5b6040519080825280602002602001820160405280156127415781602001602082028036833780820191505090505b50905060005b83811015612c2657868181518110612788577f4e487b7100000000000000000000000000000000000000000000000000000000600052603260045260246000fd5b6020026020010151600001518260006006846127a4919061326d565b6127ae9190613217565b815181106127e5577f4e487b7100000000000000000000000000000000000000000000000000000000600052603260045260246000fd5b60200260200101818152505086818151811061282a577f4e487b7100000000000000000000000000000000000000000000000000000000600052603260045260246000fd5b602002602001015160200151826001600684612846919061326d565b6128509190613217565b81518110612887577f4e487b7100000000000000000000000000000000000000000000000000000000600052603260045260246000fd5b6020026020010181815250508581815181106128cc577f4e487b7100000000000000000000000000000000000000000000000000000000600052603260045260246000fd5b602002602001015160000151600160028110612911577f4e487b7100000000000000000000000000000000000000000000000000000000600052603260045260246000fd5b6020020151826002600684612926919061326d565b6129309190613217565b81518110612967577f4e487b7100000000000000000000000000000000000000000000000000000000600052603260045260246000fd5b6020026020010181815250508581815181106129ac577f4e487b7100000000000000000000000000000000000000000000000000000000600052603260045260246000fd5b6020026020010151600001516000600281106129f1577f4e487b7100000000000000000000000000000000000000000000000000000000600052603260045260246000fd5b6020020151826003600684612a06919061326d565b612a109190613217565b81518110612a47577f4e487b7100000000000000000000000000000000000000000000000000000000600052603260045260246000fd5b602002602001018181525050858181518110612a8c577f4e487b7100000000000000000000000000000000000000000000000000000000600052603260045260246000fd5b602002602001015160200151600160028110612ad1577f4e487b7100000000000000000000000000000000000000000000000000000000600052603260045260246000fd5b6020020151826004600684612ae6919061326d565b612af09190613217565b81518110612b27577f4e487b7100000000000000000000000000000000000000000000000000000000600052603260045260246000fd5b602002602001018181525050858181518110612b6c577f4e487b7100000000000000000000000000000000000000000000000000000000600052603260045260246000fd5b602002602001015160200151600060028110612bb1577f4e487b7100000000000000000000000000000000000000000000000000000000600052603260045260246000fd5b6020020151826005600684612bc6919061326d565b612bd09190613217565b81518110612c07577f4e487b7100000000000000000000000000000000000000000000000000000000600052603260045260246000fd5b6020026020010181815250508080612c1e90613343565b915050612747565b50612c2f612da1565b6000602082602086026020860160086107d05a03fa905080612c86576040517f08c379a0000000000000000000000000000000000000000000000000000000008152600401612c7d9061314e565b60405180910390fd5b600082600060018110612cc2577f4e487b7100000000000000000000000000000000000000000000000000000000600052603260045260246000fd5b602002015114159550505050505092915050565b6040518060a00160405280612ce9612d1d565b8152602001612cf6612d7b565b8152602001612d03612d7b565b8152602001612d10612d7b565b8152602001606081525090565b604051806040016040528060008152602001600081525090565b6040518060600160405280600390602082028036833780820191505090505090565b6040518060800160405280600490602082028036833780820191505090505090565b6040518060400160405280612d8e612dc3565b8152602001612d9b612dc3565b81525090565b6040518060200160405280600190602082028036833780820191505090505090565b6040518060400160405280600290602082028036833780820191505090505090565b6000612df8612df3846131ba565b613189565b90508082856020860282011115612e0e57600080fd5b60005b85811015612e3e5781612e248882612ff2565b845260208401935060208301925050600181019050612e11565b5050509392505050565b6000612e5b612e56846131e0565b613189565b90508082856020860282011115612e7157600080fd5b60005b85811015612ea15781612e878882612ff2565b845260208401935060208301925050600181019050612e74565b5050509392505050565b600082601f830112612ebc57600080fd5b6002612ec9848285612de5565b91505092915050565b600082601f830112612ee357600080fd5b6041612ef0848285612e48565b91505092915050565b600060408284031215612f0b57600080fd5b612f156040613189565b90506000612f2584828501612ff2565b6000830152506020612f3984828501612ff2565b60208301525092915050565b600060808284031215612f5757600080fd5b612f616040613189565b90506000612f7184828501612eab565b6000830152506040612f8584828501612eab565b60208301525092915050565b60006101008284031215612fa457600080fd5b612fae6060613189565b90506000612fbe84828501612ef9565b6000830152506040612fd284828501612f45565b60208301525060c0612fe684828501612ef9565b60408301525092915050565b6000813590506130018161344a565b92915050565b6000806000610960848603121561301d57600080fd5b600061302b86828701612ed2565b93505061082061303d86828701612f91565b92505061092061304f86828701612eab565b9150509250925092565b6000806000610960848603121561306f57600080fd5b600061307d86828701612f91565b93505061010061308f86828701612ed2565b9250506109206130a186828701612eab565b9150509250925092565b6130b4816132fb565b82525050565b6130c38161330d565b82525050565b60006130d6600283613206565b91507f6e6f0000000000000000000000000000000000000000000000000000000000006000830152602082019050919050565b61311281613339565b82525050565b600060208201905061312d60008301846130ab565b92915050565b600060208201905061314860008301846130ba565b92915050565b60006020820190508181036000830152613167816130c9565b9050919050565b60006020820190506131836000830184613109565b92915050565b6000604051905081810181811067ffffffffffffffff821117156131b0576131af61341b565b5b8060405250919050565b600067ffffffffffffffff8211156131d5576131d461341b565b5b602082029050919050565b600067ffffffffffffffff8211156131fb576131fa61341b565b5b602082029050919050565b600082825260208201905092915050565b600061322282613339565b915061322d83613339565b9250827fffffffffffffffffffffffffffffffffffffffffffffffffffffffffffffffff03821115613262576132616133bd565b5b828201905092915050565b600061327882613339565b915061328383613339565b9250817fffffffffffffffffffffffffffffffffffffffffffffffffffffffffffffffff04831182151516156132bc576132bb6133bd565b5b828202905092915050565b60006132d282613339565b91506132dd83613339565b9250828210156132f0576132ef6133bd565b5b828203905092915050565b600061330682613319565b9050919050565b60008115159050919050565b600073ffffffffffffffffffffffffffffffffffffffff82169050919050565b6000819050919050565b600061334e82613339565b91507fffffffffffffffffffffffffffffffffffffffffffffffffffffffffffffffff821415613381576133806133bd565b5b600182019050919050565b600061339782613339565b91506133a283613339565b9250826133b2576133b16133ec565b5b828206905092915050565b7f4e487b7100000000000000000000000000000000000000000000000000000000600052601160045260246000fd5b7f4e487b7100000000000000000000000000000000000000000000000000000000600052601260045260246000fd5b7f4e487b7100000000000000000000000000000000000000000000000000000000600052604160045260246000fd5b61345381613339565b811461345e57600080fd5b5056fea2646970667358221220484c0be1aed6af7a5e6fdc2869fdaab348d6dab864b86d8052015b39fc063b3164736f6c63430008000033",
  "linkReferences": {},
  "deployedLinkReferences": {}
}