{
  "_format": "hh-sol-artifact-1",
  "contractName": "ERC20Token",
  "sourceName": "contracts/erc20.sol",
  "abi": [
    {
      "inputs": [],
      "stateMutability": "nonpayable",
      "type": "constructor"
    },
    {
      "anonymous": false,
      "inputs": [
        {
          "indexed": true,
          "internalType": "address",
          "name": "owner",
          "type": "address"
        },
        {
          "indexed": true,
          "internalType": "address",
          "name": "spender",
          "type": "address"
        },
        {
          "indexed": false,
          "internalType": "uint256",
          "name": "value",
          "type": "uint256"
        }
      ],
      "name": "Approval",
      "type": "event"
    },
    {
      "anonymous": false,
      "inputs": [
        {
          "indexed": true,
          "internalType": "address",
          "name": "from",
          "type": "address"
        },
        {
          "indexed": true,
          "internalType": "address",
          "name": "to",
          "type": "address"
        },
        {
          "indexed": false,
          "internalType": "uint256",
          "name": "value",
          "type": "uint256"
        }
      ],
      "name": "Transfer",
      "type": "event"
    },
    {
      "inputs": [
        {
          "internalType": "address",
          "name": "tokenOwner",
          "type": "address"
        },
        {
          "internalType": "address",
          "name": "spender",
          "type": "address"
        }
      ],
      "name": "allowance",
      "outputs": [
        {
          "internalType": "uint256",
          "name": "remaining",
          "type": "uint256"
        }
      ],
      "stateMutability": "view",
      "type": "function"
    },
    {
      "inputs": [
        {
          "internalType": "address",
          "name": "spender",
          "type": "address"
        },
        {
          "internalType": "uint256",
          "name": "tokens",
          "type": "uint256"
        }
      ],
      "name": "approve",
      "outputs": [
        {
          "internalType": "bool",
          "name": "success",
          "type": "bool"
        }
      ],
      "stateMutability": "nonpayable",
      "type": "function"
    },
    {
      "inputs": [
        {
          "internalType": "address",
          "name": "tokenOwner",
          "type": "address"
        }
      ],
      "name": "balanceOf",
      "outputs": [
        {
          "internalType": "uint256",
          "name": "balance",
          "type": "uint256"
        }
      ],
      "stateMutability": "view",
      "type": "function"
    },
    {
      "inputs": [],
      "name": "decimals",
      "outputs": [
        {
          "internalType": "uint8",
          "name": "",
          "type": "uint8"
        }
      ],
      "stateMutability": "view",
      "type": "function"
    },
    {
      "inputs": [
        {
          "internalType": "address",
          "name": "to",
          "type": "address"
        },
        {
          "internalType": "uint256",
          "name": "value",
          "type": "uint256"
        },
        {
          "components": [
            {
              "components": [
                {
                  "internalType": "uint256",
                  "name": "X",
                  "type": "uint256"
                },
                {
                  "internalType": "uint256",
                  "name": "Y",
                  "type": "uint256"
                }
              ],
              "internalType": "struct Pairing.G1Point",
              "name": "a",
              "type": "tuple"
            },
            {
              "components": [
                {
                  "internalType": "uint256[2]",
                  "name": "X",
                  "type": "uint256[2]"
                },
                {
                  "internalType": "uint256[2]",
                  "name": "Y",
                  "type": "uint256[2]"
                }
              ],
              "internalType": "struct Pairing.G2Point",
              "name": "b",
              "type": "tuple"
            },
            {
              "components": [
                {
                  "internalType": "uint256",
                  "name": "X",
                  "type": "uint256"
                },
                {
                  "internalType": "uint256",
                  "name": "Y",
                  "type": "uint256"
                }
              ],
              "internalType": "struct Pairing.G1Point",
              "name": "c",
              "type": "tuple"
            }
          ],
          "internalType": "struct Verifier.Proof",
          "name": "proof",
          "type": "tuple"
        },
        {
          "internalType": "uint256[65]",
          "name": "input",
          "type": "uint256[65]"
        },
        {
          "internalType": "uint256[2]",
          "name": "proof_commitment",
          "type": "uint256[2]"
        }
      ],
      "name": "mintWithProof",
      "outputs": [],
      "stateMutability": "nonpayable",
      "type": "function"
    },
    {
      "inputs": [],
      "name": "name",
      "outputs": [
        {
          "internalType": "string",
          "name": "",
          "type": "string"
        }
      ],
      "stateMutability": "view",
      "type": "function"
    },
    {
      "inputs": [],
      "name": "symbol",
      "outputs": [
        {
          "internalType": "string",
          "name": "",
          "type": "string"
        }
      ],
      "stateMutability": "view",
      "type": "function"
    },
    {
      "inputs": [],
      "name": "totalSupply",
      "outputs": [
        {
          "internalType": "uint256",
          "name": "",
          "type": "uint256"
        }
      ],
      "stateMutability": "view",
      "type": "function"
    },
    {
      "inputs": [
        {
          "internalType": "address",
          "name": "to",
          "type": "address"
        },
        {
          "internalType": "uint256",
          "name": "tokens",
          "type": "uint256"
        }
      ],
      "name": "transfer",
      "outputs": [
        {
          "internalType": "bool",
          "name": "success",
          "type": "bool"
        }
      ],
      "stateMutability": "nonpayable",
      "type": "function"
    },
    {
      "inputs": [
        {
          "internalType": "address",
          "name": "from",
          "type": "address"
        },
        {
          "internalType": "address",
          "name": "to",
          "type": "address"
        },
        {
          "internalType": "uint256",
          "name": "tokens",
          "type": "uint256"
        }
      ],
      "name": "transferFrom",
      "outputs": [
        {
          "internalType": "bool",
          "name": "success",
          "type": "bool"
        }
      ],
      "stateMutability": "nonpayable",
      "type": "function"
    }
  ],
  "bytecode": "0x60806040523480156200001157600080fd5b506040518060400160405280600b81526020017f455243323020546f6b656e000000000000000000000000000000000000000000815250600090805190602001906200005f92919062000144565b506040518060400160405280600281526020017f455400000000000000000000000000000000000000000000000000000000000081525060019080519060200190620000ad92919062000144565b506012600260006101000a81548160ff021916908360ff1602179055506000600381905550604051620000e090620001d5565b604051809103906000f080158015620000fd573d6000803e3d6000fd5b50600460006101000a81548173ffffffffffffffffffffffffffffffffffffffff021916908373ffffffffffffffffffffffffffffffffffffffff16021790555062000267565b828054620001529062000202565b90600052602060002090601f016020900481019282620001765760008555620001c2565b82601f106200019157805160ff1916838001178555620001c2565b82800160010185558215620001c2579182015b82811115620001c1578251825591602001919060010190620001a4565b5b509050620001d19190620001e3565b5090565b6134b680620016c583390190565b5b80821115620001fe576000816000905550600101620001e4565b5090565b600060028204905060018216806200021b57607f821691505b6020821081141562000232576200023162000238565b5b50919050565b7f4e487b7100000000000000000000000000000000000000000000000000000000600052602260045260246000fd5b61144e80620002776000396000f3fe608060405234801561001057600080fd5b506004361061009e5760003560e01c8063313ce56711610066578063313ce5671461015b57806370a082311461017957806395d89b41146101a9578063a9059cbb146101c7578063dd62ed3e146101f75761009e565b806306fdde03146100a3578063095ea7b3146100c15780630acf8131146100f157806318160ddd1461010d57806323b872dd1461012b575b600080fd5b6100ab610227565b6040516100b89190611041565b60405180910390f35b6100db60048036038101906100d69190610cd4565b6102b9565b6040516100e89190611026565b60405180910390f35b61010b60048036038101906101069190610d10565b6103e4565b005b61011561054a565b60405161012291906110bd565b60405180910390f35b61014560048036038101906101409190610c85565b610554565b6040516101529190611026565b60405180910390f35b610163610705565b60405161017091906110d8565b60405180910390f35b610193600480360381019061018e9190610c20565b61071c565b6040516101a091906110bd565b60405180910390f35b6101b1610765565b6040516101be9190611041565b60405180910390f35b6101e160048036038101906101dc9190610cd4565b6107f7565b6040516101ee9190611026565b60405180910390f35b610211600480360381019061020c9190610c49565b61094d565b60405161021e91906110bd565b60405180910390f35b60606000805461023690611303565b80601f016020809104026020016040519081016040528092919081815260200182805461026290611303565b80156102af5780601f10610284576101008083540402835291602001916102af565b820191906000526020600020905b81548152906001019060200180831161029257829003601f168201915b5050505050905090565b60008073ffffffffffffffffffffffffffffffffffffffff168373ffffffffffffffffffffffffffffffffffffffff1614156102f457600080fd5b81600660003373ffffffffffffffffffffffffffffffffffffffff1673ffffffffffffffffffffffffffffffffffffffff16815260200190815260200160002060008573ffffffffffffffffffffffffffffffffffffffff1673ffffffffffffffffffffffffffffffffffffffff168152602001908152602001600020819055508273ffffffffffffffffffffffffffffffffffffffff163373ffffffffffffffffffffffffffffffffffffffff167f8c5be1e5ebec7d5bd14f71427d1e84f3dd0314c0f7b2291e5b200ac8c7c3b925846040516103d291906110bd565b60405180910390a36001905092915050565b600460009054906101000a900473ffffffffffffffffffffffffffffffffffffffff1673ffffffffffffffffffffffffffffffffffffffff1663bc232a008484846040518463ffffffff1660e01b815260040161044393929190611083565b602060405180830381600087803b15801561045d57600080fd5b505af1158015610471573d6000803e3d6000fd5b505050506040513d601f19601f820116820180604052508101906104959190610d8a565b6104d4576040517f08c379a00000000000000000000000000000000000000000000000000000000081526004016104cb90611063565b60405180910390fd5b83600360008282546104e691906111f1565b9250508190555083600560008773ffffffffffffffffffffffffffffffffffffffff1673ffffffffffffffffffffffffffffffffffffffff168152602001908152602001600020600082825461053c91906111f1565b925050819055505050505050565b6000600354905090565b600081600560008673ffffffffffffffffffffffffffffffffffffffff1673ffffffffffffffffffffffffffffffffffffffff16815260200190815260200160002060008282546105a59190611247565b9250508190555081600660008673ffffffffffffffffffffffffffffffffffffffff1673ffffffffffffffffffffffffffffffffffffffff16815260200190815260200160002060003373ffffffffffffffffffffffffffffffffffffffff1673ffffffffffffffffffffffffffffffffffffffff16815260200190815260200160002060008282546106389190611247565b9250508190555081600560008573ffffffffffffffffffffffffffffffffffffffff1673ffffffffffffffffffffffffffffffffffffffff168152602001908152602001600020600082825461068e91906111f1565b925050819055508273ffffffffffffffffffffffffffffffffffffffff168473ffffffffffffffffffffffffffffffffffffffff167fddf252ad1be2c89b69c2b068fc378daa952ba7f163c4a11628f55a4df523b3ef846040516106f291906110bd565b60405180910390a3600190509392505050565b6000600260009054906101000a900460ff16905090565b6000600560008373ffffffffffffffffffffffffffffffffffffffff1673ffffffffffffffffffffffffffffffffffffffff168152602001908152602001600020549050919050565b60606001805461077490611303565b80601f01602080910402602001604051908101604052809291908181526020018280546107a090611303565b80156107ed5780601f106107c2576101008083540402835291602001916107ed565b820191906000526020600020905b8154815290600101906020018083116107d057829003601f168201915b5050505050905090565b60008073ffffffffffffffffffffffffffffffffffffffff168373ffffffffffffffffffffffffffffffffffffffff16141561083257600080fd5b81600560003373ffffffffffffffffffffffffffffffffffffffff1673ffffffffffffffffffffffffffffffffffffffff16815260200190815260200160002060008282546108819190611247565b9250508190555081600560008573ffffffffffffffffffffffffffffffffffffffff1673ffffffffffffffffffffffffffffffffffffffff16815260200190815260200160002060008282546108d791906111f1565b925050819055508273ffffffffffffffffffffffffffffffffffffffff163373ffffffffffffffffffffffffffffffffffffffff167fddf252ad1be2c89b69c2b068fc378daa952ba7f163c4a11628f55a4df523b3ef8460405161093b91906110bd565b60405180910390a36001905092915050565b6000600660008473ffffffffffffffffffffffffffffffffffffffff1673ffffffffffffffffffffffffffffffffffffffff16815260200190815260200160002060008373ffffffffffffffffffffffffffffffffffffffff1673ffffffffffffffffffffffffffffffffffffffff16815260200190815260200160002054905092915050565b60006109e76109e284611124565b6110f3565b905080828560208602820111156109fd57600080fd5b60005b85811015610a2d5781610a138882610c0b565b845260208401935060208301925050600181019050610a00565b5050509392505050565b6000610a4a610a458461114a565b6110f3565b90508082856020860282011115610a6057600080fd5b60005b85811015610a905781610a768882610c0b565b845260208401935060208301925050600181019050610a63565b5050509392505050565b600081359050610aa9816113d3565b92915050565b600082601f830112610ac057600080fd5b6002610acd8482856109d4565b91505092915050565b600082601f830112610ae757600080fd5b6041610af4848285610a37565b91505092915050565b600081519050610b0c816113ea565b92915050565b600060408284031215610b2457600080fd5b610b2e60406110f3565b90506000610b3e84828501610c0b565b6000830152506020610b5284828501610c0b565b60208301525092915050565b600060808284031215610b7057600080fd5b610b7a60406110f3565b90506000610b8a84828501610aaf565b6000830152506040610b9e84828501610aaf565b60208301525092915050565b60006101008284031215610bbd57600080fd5b610bc760606110f3565b90506000610bd784828501610b12565b6000830152506040610beb84828501610b5e565b60208301525060c0610bff84828501610b12565b60408301525092915050565b600081359050610c1a81611401565b92915050565b600060208284031215610c3257600080fd5b6000610c4084828501610a9a565b91505092915050565b60008060408385031215610c5c57600080fd5b6000610c6a85828601610a9a565b9250506020610c7b85828601610a9a565b9150509250929050565b600080600060608486031215610c9a57600080fd5b6000610ca886828701610a9a565b9350506020610cb986828701610a9a565b9250506040610cca86828701610c0b565b9150509250925092565b60008060408385031215610ce757600080fd5b6000610cf585828601610a9a565b9250506020610d0685828601610c0b565b9150509250929050565b60008060008060006109a08688031215610d2957600080fd5b6000610d3788828901610a9a565b9550506020610d4888828901610c0b565b9450506040610d5988828901610baa565b935050610140610d6b88828901610ad6565b925050610960610d7d88828901610aaf565b9150509295509295909350565b600060208284031215610d9c57600080fd5b6000610daa84828501610afd565b91505092915050565b6000610dbf8383610ff9565b60208301905092915050565b610dd481611184565b610dde81846111bf565b9250610de982611170565b8060005b83811015610e1a578151610e018782610db3565b9650610e0c836111a5565b925050600181019050610ded565b505050505050565b610e2b81611184565b610e3581846111ca565b9250610e4082611170565b8060005b83811015610e71578151610e588782610db3565b9650610e63836111a5565b925050600181019050610e44565b505050505050565b610e828161118f565b610e8c81846111d5565b9250610e978261117a565b8060005b83811015610ec8578151610eaf8782610db3565b9650610eba836111b2565b925050600181019050610e9b565b505050505050565b610ed98161128d565b82525050565b6000610eea8261119a565b610ef481856111e0565b9350610f048185602086016112d0565b610f0d816113c2565b840191505092915050565b6000610f256010836111e0565b91507f50726f6f6620697320696e76616c6964000000000000000000000000000000006000830152602082019050919050565b604082016000820151610f6e6000850182610ff9565b506020820151610f816020850182610ff9565b50505050565b608082016000820151610f9d6000850182610dcb565b506020820151610fb06040850182610dcb565b50505050565b61010082016000820151610fcd6000850182610f58565b506020820151610fe06040850182610f87565b506040820151610ff360c0850182610f58565b50505050565b611002816112b9565b82525050565b611011816112b9565b82525050565b611020816112c3565b82525050565b600060208201905061103b6000830184610ed0565b92915050565b6000602082019050818103600083015261105b8184610edf565b905092915050565b6000602082019050818103600083015261107c81610f18565b9050919050565b6000610960820190506110996000830186610fb6565b6110a7610100830185610e79565b6110b5610920830184610e22565b949350505050565b60006020820190506110d26000830184611008565b92915050565b60006020820190506110ed6000830184611017565b92915050565b6000604051905081810181811067ffffffffffffffff8211171561111a57611119611393565b5b8060405250919050565b600067ffffffffffffffff82111561113f5761113e611393565b5b602082029050919050565b600067ffffffffffffffff82111561116557611164611393565b5b602082029050919050565b6000819050919050565b6000819050919050565b600060029050919050565b600060419050919050565b600081519050919050565b6000602082019050919050565b6000602082019050919050565b600081905092915050565b600081905092915050565b600081905092915050565b600082825260208201905092915050565b60006111fc826112b9565b9150611207836112b9565b9250827fffffffffffffffffffffffffffffffffffffffffffffffffffffffffffffffff0382111561123c5761123b611335565b5b828201905092915050565b6000611252826112b9565b915061125d836112b9565b9250828210156112705761126f611335565b5b828203905092915050565b600061128682611299565b9050919050565b60008115159050919050565b600073ffffffffffffffffffffffffffffffffffffffff82169050919050565b6000819050919050565b600060ff82169050919050565b60005b838110156112ee5780820151818401526020810190506112d3565b838111156112fd576000848401525b50505050565b6000600282049050600182168061131b57607f821691505b6020821081141561132f5761132e611364565b5b50919050565b7f4e487b7100000000000000000000000000000000000000000000000000000000600052601160045260246000fd5b7f4e487b7100000000000000000000000000000000000000000000000000000000600052602260045260246000fd5b7f4e487b7100000000000000000000000000000000000000000000000000000000600052604160045260246000fd5b6000601f19601f8301169050919050565b6113dc8161127b565b81146113e757600080fd5b50565b6113f38161128d565b81146113fe57600080fd5b50565b61140a816112b9565b811461141557600080fd5b5056fea26469706673582212203d31ab37c6c6f81cab795647a6a5017310eecd2ae4b8165944a760e078989e9964736f6c63430008000033608060405234801561001057600080fd5b50613496806100206000396000f3fe608060405234801561001057600080fd5b50600436106100365760003560e01c8063bc232a001461003b578063e080e16e1461006b575b600080fd5b61005560048036038101906100509190613058565b61009b565b6040516100629190613132565b60405180910390f35b61008560048036038101906100809190613006565b6100fb565b604051610092919061316d565b60405180910390f35b6000806100a98486856100fb565b14156100ef577fe78b29f09ce8ea10f38c2cd1016403d7a96bc8a14f6c1daa0da40c836bd2067e336040516100de9190613117565b60405180910390a1600190506100f4565b600090505b9392505050565b6000807f30644e72e131a029b85045b68181585d2833e84879b9709143e1f593f00000019050600061012b6103c8565b9050806080015151600160416101419190613216565b1461014b57600080fd5b60006040518060400160405280600081526020016000815250905060005b604181101561027057838882604181106101ac577f4e487b7100000000000000000000000000000000000000000000000000000000600052603260045260246000fd5b6020020151106101bb57600080fd5b61025b8261025685608001516001856101d49190613216565b8151811061020b577f4e487b7100000000000000000000000000000000000000000000000000000000600052603260045260246000fd5b60200260200101518b856041811061024c577f4e487b7100000000000000000000000000000000000000000000000000000000600052603260045260246000fd5b602002015161203d565b612156565b9150808061026890613342565b915050610169565b5060006040518060400160405280876000600281106102b8577f4e487b7100000000000000000000000000000000000000000000000000000000600052603260045260246000fd5b60200201518152602001876001600281106102fc577f4e487b7100000000000000000000000000000000000000000000000000000000600052603260045260246000fd5b60200201518152509050610355828460800151600081518110610348577f4e487b7100000000000000000000000000000000000000000000000000000000600052603260045260246000fd5b6020026020010151612156565b91506103618282612156565b91506103a787600001518860200151610379856122bb565b866040015161038b8c604001516122bb565b886060015161039d8a600001516122bb565b8a60200151612360565b6103b85760019450505050506103c1565b60009450505050505b9392505050565b6103d0612cd5565b60405180604001604052807f0f31167d4c5276695c3076cd17c077469f9d045e2d92648f2b29419d5dd693f581526020017f0e2f803d1faea656ff4a7d720597d68878930d5ea23bed9a7ad4ec69a5924c978152508160000181905250604051806040016040528060405180604001604052807f18c964f234e53fc6e5efeb331eced9a8457fd0c1c3f4ddcf6995bb71da28cf5e81526020017f223fe6b4d9c130f914e2335d6a681554233bfb5b72ab75675e8b140412bf8c0a815250815260200160405180604001604052807f26dde4cf62bfdbd1b6d4920907178544aa4f7018da87a0dfd803351fca477cbc81526020017f0979907097e943833e47505956e8c5e5e8251cc3a86e81efb5f8fc9ae8380a788152508152508160200181905250604051806040016040528060405180604001604052807f1f0e58449df6a9c21866fc666efbd1be78b290f77ae1404151ef4e4f141d024181526020017f2579491b1e4b4d467311d95efebf69c61334203b453db9994ab6011e742d1d88815250815260200160405180604001604052807f0a5e42d6e9bfb5a22352fb43aacf16b25cc51f82e903fd2af487c1b4b685030e81526020017f1efffde7045380982e8179dd792ace2cd5dbca7ebe7969e289aedf4d1a5044118152508152508160400181905250604051806040016040528060405180604001604052807e6df80e2b2d32482dd9c760c834a613c2ee6c6b71ef67adab6fdad49fec9f0881526020017f0a818e80adc7c8457bdf29a7adf84e5a493d5c9e8ed315215d92352d09aeb8f3815250815260200160405180604001604052807f1cc89234a86d260e9bf4736e2d8be94f3602cb523d0c23b0607665de6d2d97ab81526020017f12bcd718328a4ef1b83b9ca21056c102abec7f94151b49475f303c446c37f6918152508152508160600181905250604267ffffffffffffffff8111156106bc577f4e487b7100000000000000000000000000000000000000000000000000000000600052604160045260246000fd5b6040519080825280602002602001820160405280156106f557816020015b6106e2612d1c565b8152602001906001900390816106da5790505b50816080018190525060405180604001604052807f01368e50c0be9622a3eadcd39c9bf450ddec16d4e13df4744745418369c5d94b81526020017f07c1929e65f14539c0a2e157b5c9c582148ef351e76bf4ed6bc2c3c9595a6c698152508160800151600081518110610791577f4e487b7100000000000000000000000000000000000000000000000000000000600052603260045260246000fd5b6020026020010181905250604051806040016040528060008152602001600081525081608001516001815181106107f1577f4e487b7100000000000000000000000000000000000000000000000000000000600052603260045260246000fd5b602002602001018190525060405180604001604052806000815260200160008152508160800151600281518110610851577f4e487b7100000000000000000000000000000000000000000000000000000000600052603260045260246000fd5b6020026020010181905250604051806040016040528060008152602001600081525081608001516003815181106108b1577f4e487b7100000000000000000000000000000000000000000000000000000000600052603260045260246000fd5b602002602001018190525060405180604001604052806000815260200160008152508160800151600481518110610911577f4e487b7100000000000000000000000000000000000000000000000000000000600052603260045260246000fd5b602002602001018190525060405180604001604052806000815260200160008152508160800151600581518110610971577f4e487b7100000000000000000000000000000000000000000000000000000000600052603260045260246000fd5b6020026020010181905250604051806040016040528060008152602001600081525081608001516006815181106109d1577f4e487b7100000000000000000000000000000000000000000000000000000000600052603260045260246000fd5b602002602001018190525060405180604001604052806000815260200160008152508160800151600781518110610a31577f4e487b7100000000000000000000000000000000000000000000000000000000600052603260045260246000fd5b602002602001018190525060405180604001604052806000815260200160008152508160800151600881518110610a91577f4e487b7100000000000000000000000000000000000000000000000000000000600052603260045260246000fd5b602002602001018190525060405180604001604052806000815260200160008152508160800151600981518110610af1577f4e487b7100000000000000000000000000000000000000000000000000000000600052603260045260246000fd5b602002602001018190525060405180604001604052806000815260200160008152508160800151600a81518110610b51577f4e487b7100000000000000000000000000000000000000000000000000000000600052603260045260246000fd5b602002602001018190525060405180604001604052806000815260200160008152508160800151600b81518110610bb1577f4e487b7100000000000000000000000000000000000000000000000000000000600052603260045260246000fd5b602002602001018190525060405180604001604052806000815260200160008152508160800151600c81518110610c11577f4e487b7100000000000000000000000000000000000000000000000000000000600052603260045260246000fd5b602002602001018190525060405180604001604052806000815260200160008152508160800151600d81518110610c71577f4e487b7100000000000000000000000000000000000000000000000000000000600052603260045260246000fd5b602002602001018190525060405180604001604052806000815260200160008152508160800151600e81518110610cd1577f4e487b7100000000000000000000000000000000000000000000000000000000600052603260045260246000fd5b602002602001018190525060405180604001604052806000815260200160008152508160800151600f81518110610d31577f4e487b7100000000000000000000000000000000000000000000000000000000600052603260045260246000fd5b602002602001018190525060405180604001604052806000815260200160008152508160800151601081518110610d91577f4e487b7100000000000000000000000000000000000000000000000000000000600052603260045260246000fd5b602002602001018190525060405180604001604052806000815260200160008152508160800151601181518110610df1577f4e487b7100000000000000000000000000000000000000000000000000000000600052603260045260246000fd5b602002602001018190525060405180604001604052806000815260200160008152508160800151601281518110610e51577f4e487b7100000000000000000000000000000000000000000000000000000000600052603260045260246000fd5b602002602001018190525060405180604001604052806000815260200160008152508160800151601381518110610eb1577f4e487b7100000000000000000000000000000000000000000000000000000000600052603260045260246000fd5b602002602001018190525060405180604001604052806000815260200160008152508160800151601481518110610f11577f4e487b7100000000000000000000000000000000000000000000000000000000600052603260045260246000fd5b602002602001018190525060405180604001604052806000815260200160008152508160800151601581518110610f71577f4e487b7100000000000000000000000000000000000000000000000000000000600052603260045260246000fd5b602002602001018190525060405180604001604052806000815260200160008152508160800151601681518110610fd1577f4e487b7100000000000000000000000000000000000000000000000000000000600052603260045260246000fd5b602002602001018190525060405180604001604052806000815260200160008152508160800151601781518110611031577f4e487b7100000000000000000000000000000000000000000000000000000000600052603260045260246000fd5b602002602001018190525060405180604001604052806000815260200160008152508160800151601881518110611091577f4e487b7100000000000000000000000000000000000000000000000000000000600052603260045260246000fd5b6020026020010181905250604051806040016040528060008152602001600081525081608001516019815181106110f1577f4e487b7100000000000000000000000000000000000000000000000000000000600052603260045260246000fd5b602002602001018190525060405180604001604052806000815260200160008152508160800151601a81518110611151577f4e487b7100000000000000000000000000000000000000000000000000000000600052603260045260246000fd5b602002602001018190525060405180604001604052806000815260200160008152508160800151601b815181106111b1577f4e487b7100000000000000000000000000000000000000000000000000000000600052603260045260246000fd5b602002602001018190525060405180604001604052806000815260200160008152508160800151601c81518110611211577f4e487b7100000000000000000000000000000000000000000000000000000000600052603260045260246000fd5b602002602001018190525060405180604001604052806000815260200160008152508160800151601d81518110611271577f4e487b7100000000000000000000000000000000000000000000000000000000600052603260045260246000fd5b602002602001018190525060405180604001604052806000815260200160008152508160800151601e815181106112d1577f4e487b7100000000000000000000000000000000000000000000000000000000600052603260045260246000fd5b602002602001018190525060405180604001604052806000815260200160008152508160800151601f81518110611331577f4e487b7100000000000000000000000000000000000000000000000000000000600052603260045260246000fd5b602002602001018190525060405180604001604052806000815260200160008152508160800151602081518110611391577f4e487b7100000000000000000000000000000000000000000000000000000000600052603260045260246000fd5b6020026020010181905250604051806040016040528060008152602001600081525081608001516021815181106113f1577f4e487b7100000000000000000000000000000000000000000000000000000000600052603260045260246000fd5b602002602001018190525060405180604001604052806000815260200160008152508160800151602281518110611451577f4e487b7100000000000000000000000000000000000000000000000000000000600052603260045260246000fd5b6020026020010181905250604051806040016040528060008152602001600081525081608001516023815181106114b1577f4e487b7100000000000000000000000000000000000000000000000000000000600052603260045260246000fd5b602002602001018190525060405180604001604052806000815260200160008152508160800151602481518110611511577f4e487b7100000000000000000000000000000000000000000000000000000000600052603260045260246000fd5b602002602001018190525060405180604001604052806000815260200160008152508160800151602581518110611571577f4e487b7100000000000000000000000000000000000000000000000000000000600052603260045260246000fd5b6020026020010181905250604051806040016040528060008152602001600081525081608001516026815181106115d1577f4e487b7100000000000000000000000000000000000000000000000000000000600052603260045260246000fd5b602002602001018190525060405180604001604052806000815260200160008152508160800151602781518110611631577f4e487b7100000000000000000000000000000000000000000000000000000000600052603260045260246000fd5b602002602001018190525060405180604001604052806000815260200160008152508160800151602881518110611691577f4e487b7100000000000000000000000000000000000000000000000000000000600052603260045260246000fd5b6020026020010181905250604051806040016040528060008152602001600081525081608001516029815181106116f1577f4e487b7100000000000000000000000000000000000000000000000000000000600052603260045260246000fd5b602002602001018190525060405180604001604052806000815260200160008152508160800151602a81518110611751577f4e487b7100000000000000000000000000000000000000000000000000000000600052603260045260246000fd5b602002602001018190525060405180604001604052806000815260200160008152508160800151602b815181106117b1577f4e487b7100000000000000000000000000000000000000000000000000000000600052603260045260246000fd5b602002602001018190525060405180604001604052806000815260200160008152508160800151602c81518110611811577f4e487b7100000000000000000000000000000000000000000000000000000000600052603260045260246000fd5b602002602001018190525060405180604001604052806000815260200160008152508160800151602d81518110611871577f4e487b7100000000000000000000000000000000000000000000000000000000600052603260045260246000fd5b602002602001018190525060405180604001604052806000815260200160008152508160800151602e815181106118d1577f4e487b7100000000000000000000000000000000000000000000000000000000600052603260045260246000fd5b602002602001018190525060405180604001604052806000815260200160008152508160800151602f81518110611931577f4e487b7100000000000000000000000000000000000000000000000000000000600052603260045260246000fd5b602002602001018190525060405180604001604052806000815260200160008152508160800151603081518110611991577f4e487b7100000000000000000000000000000000000000000000000000000000600052603260045260246000fd5b6020026020010181905250604051806040016040528060008152602001600081525081608001516031815181106119f1577f4e487b7100000000000000000000000000000000000000000000000000000000600052603260045260246000fd5b602002602001018190525060405180604001604052806000815260200160008152508160800151603281518110611a51577f4e487b7100000000000000000000000000000000000000000000000000000000600052603260045260246000fd5b602002602001018190525060405180604001604052806000815260200160008152508160800151603381518110611ab1577f4e487b7100000000000000000000000000000000000000000000000000000000600052603260045260246000fd5b602002602001018190525060405180604001604052806000815260200160008152508160800151603481518110611b11577f4e487b7100000000000000000000000000000000000000000000000000000000600052603260045260246000fd5b602002602001018190525060405180604001604052806000815260200160008152508160800151603581518110611b71577f4e487b7100000000000000000000000000000000000000000000000000000000600052603260045260246000fd5b602002602001018190525060405180604001604052806000815260200160008152508160800151603681518110611bd1577f4e487b7100000000000000000000000000000000000000000000000000000000600052603260045260246000fd5b602002602001018190525060405180604001604052806000815260200160008152508160800151603781518110611c31577f4e487b7100000000000000000000000000000000000000000000000000000000600052603260045260246000fd5b602002602001018190525060405180604001604052806000815260200160008152508160800151603881518110611c91577f4e487b7100000000000000000000000000000000000000000000000000000000600052603260045260246000fd5b602002602001018190525060405180604001604052806000815260200160008152508160800151603981518110611cf1577f4e487b7100000000000000000000000000000000000000000000000000000000600052603260045260246000fd5b602002602001018190525060405180604001604052806000815260200160008152508160800151603a81518110611d51577f4e487b7100000000000000000000000000000000000000000000000000000000600052603260045260246000fd5b602002602001018190525060405180604001604052806000815260200160008152508160800151603b81518110611db1577f4e487b7100000000000000000000000000000000000000000000000000000000600052603260045260246000fd5b602002602001018190525060405180604001604052806000815260200160008152508160800151603c81518110611e11577f4e487b7100000000000000000000000000000000000000000000000000000000600052603260045260246000fd5b602002602001018190525060405180604001604052806000815260200160008152508160800151603d81518110611e71577f4e487b7100000000000000000000000000000000000000000000000000000000600052603260045260246000fd5b602002602001018190525060405180604001604052806000815260200160008152508160800151603e81518110611ed1577f4e487b7100000000000000000000000000000000000000000000000000000000600052603260045260246000fd5b602002602001018190525060405180604001604052806000815260200160008152508160800151603f81518110611f31577f4e487b7100000000000000000000000000000000000000000000000000000000600052603260045260246000fd5b602002602001018190525060405180604001604052806000815260200160008152508160800151604081518110611f91577f4e487b7100000000000000000000000000000000000000000000000000000000600052603260045260246000fd5b602002602001018190525060405180604001604052807f2441e4ee4e6cd286cd22685fbca3543a8a12e3fe8c69591053f5604866efae3c81526020017f13683e922abd44b06eee340299e2786af8cab4a4718391200e6b36f86797e8bf815250816080015160418151811061202f577f4e487b7100000000000000000000000000000000000000000000000000000000600052603260045260246000fd5b602002602001018190525090565b612045612d1c565b61204d612d36565b83600001518160006003811061208c577f4e487b7100000000000000000000000000000000000000000000000000000000600052603260045260246000fd5b6020020181815250508360200151816001600381106120d4577f4e487b7100000000000000000000000000000000000000000000000000000000600052603260045260246000fd5b6020020181815250508281600260038110612118577f4e487b7100000000000000000000000000000000000000000000000000000000600052603260045260246000fd5b602002018181525050600060608360808460076107d05a03fa9050806000811461214157612143565bfe5b508061214e57600080fd5b505092915050565b61215e612d1c565b612166612d58565b8360000151816000600481106121a5577f4e487b7100000000000000000000000000000000000000000000000000000000600052603260045260246000fd5b6020020181815250508360200151816001600481106121ed577f4e487b7100000000000000000000000000000000000000000000000000000000600052603260045260246000fd5b602002018181525050826000015181600260048110612235577f4e487b7100000000000000000000000000000000000000000000000000000000600052603260045260246000fd5b60200201818152505082602001518160036004811061227d577f4e487b7100000000000000000000000000000000000000000000000000000000600052603260045260246000fd5b602002018181525050600060608360c08460066107d05a03fa905080600081146122a6576122a8565bfe5b50806122b357600080fd5b505092915050565b6122c3612d1c565b60007f30644e72e131a029b85045b68181585d97816a916871ca8d3c208c16d87cfd47905060008360000151148015612300575060008360200151145b1561232457604051806040016040528060008152602001600081525091505061235b565b604051806040016040528084600001518152602001828560200151612349919061338b565b8361235491906132c6565b8152509150505b919050565b600080600467ffffffffffffffff8111156123a4577f4e487b7100000000000000000000000000000000000000000000000000000000600052604160045260246000fd5b6040519080825280602002602001820160405280156123dd57816020015b6123ca612d1c565b8152602001906001900390816123c25790505b5090506000600467ffffffffffffffff811115612423577f4e487b7100000000000000000000000000000000000000000000000000000000600052604160045260246000fd5b60405190808252806020026020018201604052801561245c57816020015b612449612d7a565b8152602001906001900390816124415790505b5090508a8260008151811061249a577f4e487b7100000000000000000000000000000000000000000000000000000000600052603260045260246000fd5b602002602001018190525088826001815181106124e0577f4e487b7100000000000000000000000000000000000000000000000000000000600052603260045260246000fd5b60200260200101819052508682600281518110612526577f4e487b7100000000000000000000000000000000000000000000000000000000600052603260045260246000fd5b6020026020010181905250848260038151811061256c577f4e487b7100000000000000000000000000000000000000000000000000000000600052603260045260246000fd5b602002602001018190525089816000815181106125b2577f4e487b7100000000000000000000000000000000000000000000000000000000600052603260045260246000fd5b602002602001018190525087816001815181106125f8577f4e487b7100000000000000000000000000000000000000000000000000000000600052603260045260246000fd5b6020026020010181905250858160028151811061263e577f4e487b7100000000000000000000000000000000000000000000000000000000600052603260045260246000fd5b60200260200101819052508381600381518110612684577f4e487b7100000000000000000000000000000000000000000000000000000000600052603260045260246000fd5b602002602001018190525061269982826126a9565b9250505098975050505050505050565b600081518351146126b957600080fd5b60008351905060006006826126ce919061326c565b905060008167ffffffffffffffff811115612712577f4e487b7100000000000000000000000000000000000000000000000000000000600052604160045260246000fd5b6040519080825280602002602001820160405280156127405781602001602082028036833780820191505090505b50905060005b83811015612c2557868181518110612787577f4e487b7100000000000000000000000000000000000000000000000000000000600052603260045260246000fd5b6020026020010151600001518260006006846127a3919061326c565b6127ad9190613216565b815181106127e4577f4e487b7100000000000000000000000000000000000000000000000000000000600052603260045260246000fd5b602002602001018181525050868181518110612829577f4e487b7100000000000000000000000000000000000000000000000000000000600052603260045260246000fd5b602002602001015160200151826001600684612845919061326c565b61284f9190613216565b81518110612886577f4e487b7100000000000000000000000000000000000000000000000000000000600052603260045260246000fd5b6020026020010181815250508581815181106128cb577f4e487b7100000000000000000000000000000000000000000000000000000000600052603260045260246000fd5b602002602001015160000151600160028110612910577f4e487b7100000000000000000000000000000000000000000000000000000000600052603260045260246000fd5b6020020151826002600684612925919061326c565b61292f9190613216565b81518110612966577f4e487b7100000000000000000000000000000000000000000000000000000000600052603260045260246000fd5b6020026020010181815250508581815181106129ab577f4e487b7100000000000000000000000000000000000000000000000000000000600052603260045260246000fd5b6020026020010151600001516000600281106129f0577f4e487b7100000000000000000000000000000000000000000000000000000000600052603260045260246000fd5b6020020151826003600684612a05919061326c565b612a0f9190613216565b81518110612a46577f4e487b7100000000000000000000000000000000000000000000000000000000600052603260045260246000fd5b602002602001018181525050858181518110612a8b577f4e487b7100000000000000000000000000000000000000000000000000000000600052603260045260246000fd5b602002602001015160200151600160028110612ad0577f4e487b7100000000000000000000000000000000000000000000000000000000600052603260045260246000fd5b6020020151826004600684612ae5919061326c565b612aef9190613216565b81518110612b26577f4e487b7100000000000000000000000000000000000000000000000000000000600052603260045260246000fd5b602002602001018181525050858181518110612b6b577f4e487b7100000000000000000000000000000000000000000000000000000000600052603260045260246000fd5b602002602001015160200151600060028110612bb0577f4e487b7100000000000000000000000000000000000000000000000000000000600052603260045260246000fd5b6020020151826005600684612bc5919061326c565b612bcf9190613216565b81518110612c06577f4e487b7100000000000000000000000000000000000000000000000000000000600052603260045260246000fd5b6020026020010181815250508080612c1d90613342565b915050612746565b50612c2e612da0565b6000602082602086026020860160086107d05a03fa905080612c85576040517f08c379a0000000000000000000000000000000000000000000000000000000008152600401612c7c9061314d565b60405180910390fd5b600082600060018110612cc1577f4e487b7100000000000000000000000000000000000000000000000000000000600052603260045260246000fd5b602002015114159550505050505092915050565b6040518060a00160405280612ce8612d1c565b8152602001612cf5612d7a565b8152602001612d02612d7a565b8152602001612d0f612d7a565b8152602001606081525090565b604051806040016040528060008152602001600081525090565b6040518060600160405280600390602082028036833780820191505090505090565b6040518060800160405280600490602082028036833780820191505090505090565b6040518060400160405280612d8d612dc2565b8152602001612d9a612dc2565b81525090565b6040518060200160405280600190602082028036833780820191505090505090565b6040518060400160405280600290602082028036833780820191505090505090565b6000612df7612df2846131b9565b613188565b90508082856020860282011115612e0d57600080fd5b60005b85811015612e3d5781612e238882612ff1565b845260208401935060208301925050600181019050612e10565b5050509392505050565b6000612e5a612e55846131df565b613188565b90508082856020860282011115612e7057600080fd5b60005b85811015612ea05781612e868882612ff1565b845260208401935060208301925050600181019050612e73565b5050509392505050565b600082601f830112612ebb57600080fd5b6002612ec8848285612de4565b91505092915050565b600082601f830112612ee257600080fd5b6041612eef848285612e47565b91505092915050565b600060408284031215612f0a57600080fd5b612f146040613188565b90506000612f2484828501612ff1565b6000830152506020612f3884828501612ff1565b60208301525092915050565b600060808284031215612f5657600080fd5b612f606040613188565b90506000612f7084828501612eaa565b6000830152506040612f8484828501612eaa565b60208301525092915050565b60006101008284031215612fa357600080fd5b612fad6060613188565b90506000612fbd84828501612ef8565b6000830152506040612fd184828501612f44565b60208301525060c0612fe584828501612ef8565b60408301525092915050565b60008135905061300081613449565b92915050565b6000806000610960848603121561301c57600080fd5b600061302a86828701612ed1565b93505061082061303c86828701612f90565b92505061092061304e86828701612eaa565b9150509250925092565b6000806000610960848603121561306e57600080fd5b600061307c86828701612f90565b93505061010061308e86828701612ed1565b9250506109206130a086828701612eaa565b9150509250925092565b6130b3816132fa565b82525050565b6130c28161330c565b82525050565b60006130d5600283613205565b91507f6e6f0000000000000000000000000000000000000000000000000000000000006000830152602082019050919050565b61311181613338565b82525050565b600060208201905061312c60008301846130aa565b92915050565b600060208201905061314760008301846130b9565b92915050565b60006020820190508181036000830152613166816130c8565b9050919050565b60006020820190506131826000830184613108565b92915050565b6000604051905081810181811067ffffffffffffffff821117156131af576131ae61341a565b5b8060405250919050565b600067ffffffffffffffff8211156131d4576131d361341a565b5b602082029050919050565b600067ffffffffffffffff8211156131fa576131f961341a565b5b602082029050919050565b600082825260208201905092915050565b600061322182613338565b915061322c83613338565b9250827fffffffffffffffffffffffffffffffffffffffffffffffffffffffffffffffff03821115613261576132606133bc565b5b828201905092915050565b600061327782613338565b915061328283613338565b9250817fffffffffffffffffffffffffffffffffffffffffffffffffffffffffffffffff04831182151516156132bb576132ba6133bc565b5b828202905092915050565b60006132d182613338565b91506132dc83613338565b9250828210156132ef576132ee6133bc565b5b828203905092915050565b600061330582613318565b9050919050565b60008115159050919050565b600073ffffffffffffffffffffffffffffffffffffffff82169050919050565b6000819050919050565b600061334d82613338565b91507fffffffffffffffffffffffffffffffffffffffffffffffffffffffffffffffff8214156133805761337f6133bc565b5b600182019050919050565b600061339682613338565b91506133a183613338565b9250826133b1576133b06133eb565b5b828206905092915050565b7f4e487b7100000000000000000000000000000000000000000000000000000000600052601160045260246000fd5b7f4e487b7100000000000000000000000000000000000000000000000000000000600052601260045260246000fd5b7f4e487b7100000000000000000000000000000000000000000000000000000000600052604160045260246000fd5b61345281613338565b811461345d57600080fd5b5056fea264697066735822122094b760a72161fb5f77166aa03ef5380d36bd77f27aa224dcafc45cbeed732a8364736f6c63430008000033",
  "linkReferences": {},
  "deployedLinkReferences": {}
}